{
  "_format": "hh-sol-artifact-1",
  "contractName": "TimeswapConvenience",
  "sourceName": "contracts/TimeswapConvenience.sol",
  "abi": [
    {
      "inputs": [
        {
          "internalType": "contract IFactory",
          "name": "_factory",
          "type": "address"
        },
        {
          "internalType": "contract IWETH",
          "name": "_weth",
          "type": "address"
        }
      ],
      "stateMutability": "nonpayable",
      "type": "constructor"
    },
    {
      "inputs": [
        {
          "components": [
            {
              "internalType": "contract IERC20",
              "name": "asset",
              "type": "address"
            },
            {
              "internalType": "contract IERC20",
              "name": "collateral",
              "type": "address"
            },
            {
              "internalType": "uint256",
              "name": "maturity",
              "type": "uint256"
            },
            {
              "internalType": "address",
              "name": "liquidityTo",
              "type": "address"
            },
            {
              "internalType": "address",
              "name": "dueTo",
              "type": "address"
            },
            {
              "internalType": "uint112",
              "name": "assetIn",
              "type": "uint112"
            },
            {
              "internalType": "uint256",
              "name": "minLiquidity",
              "type": "uint256"
            },
            {
              "internalType": "uint112",
              "name": "maxDebt",
              "type": "uint112"
            },
            {
              "internalType": "uint112",
              "name": "maxCollateral",
              "type": "uint112"
            },
            {
              "internalType": "uint256",
              "name": "deadline",
              "type": "uint256"
            }
          ],
          "internalType": "struct IMint.AddLiquidity",
          "name": "params",
          "type": "tuple"
        }
      ],
      "name": "addLiquidity",
      "outputs": [
        {
          "internalType": "uint256",
          "name": "liquidityOut",
          "type": "uint256"
        },
        {
          "internalType": "uint256",
          "name": "id",
          "type": "uint256"
        },
        {
          "components": [
            {
              "internalType": "uint112",
              "name": "debt",
              "type": "uint112"
            },
            {
              "internalType": "uint112",
              "name": "collateral",
              "type": "uint112"
            },
            {
              "internalType": "uint32",
              "name": "startBlock",
              "type": "uint32"
            }
          ],
          "internalType": "struct IPair.Due",
          "name": "dueOut",
          "type": "tuple"
        }
      ],
      "stateMutability": "nonpayable",
      "type": "function"
    },
    {
      "inputs": [
        {
          "components": [
            {
              "internalType": "contract IERC20",
              "name": "collateral",
              "type": "address"
            },
            {
              "internalType": "uint256",
              "name": "maturity",
              "type": "uint256"
            },
            {
              "internalType": "address",
              "name": "liquidityTo",
              "type": "address"
            },
            {
              "internalType": "address",
              "name": "dueTo",
              "type": "address"
            },
            {
              "internalType": "uint256",
              "name": "minLiquidity",
              "type": "uint256"
            },
            {
              "internalType": "uint112",
              "name": "maxDebt",
              "type": "uint112"
            },
            {
              "internalType": "uint112",
              "name": "maxCollateral",
              "type": "uint112"
            },
            {
              "internalType": "uint256",
              "name": "deadline",
              "type": "uint256"
            }
          ],
          "internalType": "struct IMint.AddLiquidityETHAsset",
          "name": "params",
          "type": "tuple"
        }
      ],
      "name": "addLiquidityETHAsset",
      "outputs": [
        {
          "internalType": "uint256",
          "name": "liquidityOut",
          "type": "uint256"
        },
        {
          "internalType": "uint256",
          "name": "id",
          "type": "uint256"
        },
        {
          "components": [
            {
              "internalType": "uint112",
              "name": "debt",
              "type": "uint112"
            },
            {
              "internalType": "uint112",
              "name": "collateral",
              "type": "uint112"
            },
            {
              "internalType": "uint32",
              "name": "startBlock",
              "type": "uint32"
            }
          ],
          "internalType": "struct IPair.Due",
          "name": "dueOut",
          "type": "tuple"
        }
      ],
      "stateMutability": "payable",
      "type": "function"
    },
    {
      "inputs": [
        {
          "components": [
            {
              "internalType": "contract IERC20",
              "name": "asset",
              "type": "address"
            },
            {
              "internalType": "uint256",
              "name": "maturity",
              "type": "uint256"
            },
            {
              "internalType": "address",
              "name": "liquidityTo",
              "type": "address"
            },
            {
              "internalType": "address",
              "name": "dueTo",
              "type": "address"
            },
            {
              "internalType": "uint112",
              "name": "assetIn",
              "type": "uint112"
            },
            {
              "internalType": "uint256",
              "name": "minLiquidity",
              "type": "uint256"
            },
            {
              "internalType": "uint112",
              "name": "maxDebt",
              "type": "uint112"
            },
            {
              "internalType": "uint256",
              "name": "deadline",
              "type": "uint256"
            }
          ],
          "internalType": "struct IMint.AddLiquidityETHCollateral",
          "name": "params",
          "type": "tuple"
        }
      ],
      "name": "addLiquidityETHCollateral",
      "outputs": [
        {
          "internalType": "uint256",
          "name": "liquidityOut",
          "type": "uint256"
        },
        {
          "internalType": "uint256",
          "name": "id",
          "type": "uint256"
        },
        {
          "components": [
            {
              "internalType": "uint112",
              "name": "debt",
              "type": "uint112"
            },
            {
              "internalType": "uint112",
              "name": "collateral",
              "type": "uint112"
            },
            {
              "internalType": "uint32",
              "name": "startBlock",
              "type": "uint32"
            }
          ],
          "internalType": "struct IPair.Due",
          "name": "dueOut",
          "type": "tuple"
        }
      ],
      "stateMutability": "payable",
      "type": "function"
    },
    {
      "inputs": [
        {
          "components": [
            {
              "internalType": "contract IERC20",
              "name": "asset",
              "type": "address"
            },
            {
              "internalType": "contract IERC20",
              "name": "collateral",
              "type": "address"
            },
            {
              "internalType": "uint256",
              "name": "maturity",
              "type": "uint256"
            },
            {
              "internalType": "address",
              "name": "assetTo",
              "type": "address"
            },
            {
              "internalType": "address",
              "name": "dueTo",
              "type": "address"
            },
            {
              "internalType": "uint112",
              "name": "assetOut",
              "type": "uint112"
            },
            {
              "internalType": "uint112",
              "name": "collateralIn",
              "type": "uint112"
            },
            {
              "internalType": "uint112",
              "name": "maxDebt",
              "type": "uint112"
            },
            {
              "internalType": "uint256",
              "name": "deadline",
              "type": "uint256"
            }
          ],
          "internalType": "struct IBorrow.BorrowGivenCollateral",
          "name": "params",
          "type": "tuple"
        }
      ],
      "name": "borrowGivenCollateral",
      "outputs": [
        {
          "internalType": "uint256",
          "name": "id",
          "type": "uint256"
        },
        {
          "components": [
            {
              "internalType": "uint112",
              "name": "debt",
              "type": "uint112"
            },
            {
              "internalType": "uint112",
              "name": "collateral",
              "type": "uint112"
            },
            {
              "internalType": "uint32",
              "name": "startBlock",
              "type": "uint32"
            }
          ],
          "internalType": "struct IPair.Due",
          "name": "dueOut",
          "type": "tuple"
        }
      ],
      "stateMutability": "nonpayable",
      "type": "function"
    },
    {
      "inputs": [
        {
          "components": [
            {
              "internalType": "contract IERC20",
              "name": "collateral",
              "type": "address"
            },
            {
              "internalType": "uint256",
              "name": "maturity",
              "type": "uint256"
            },
            {
              "internalType": "address payable",
              "name": "assetTo",
              "type": "address"
            },
            {
              "internalType": "address",
              "name": "dueTo",
              "type": "address"
            },
            {
              "internalType": "uint112",
              "name": "assetOut",
              "type": "uint112"
            },
            {
              "internalType": "uint112",
              "name": "collateralIn",
              "type": "uint112"
            },
            {
              "internalType": "uint112",
              "name": "maxDebt",
              "type": "uint112"
            },
            {
              "internalType": "uint256",
              "name": "deadline",
              "type": "uint256"
            }
          ],
          "internalType": "struct IBorrow.BorrowGivenCollateralETHAsset",
          "name": "params",
          "type": "tuple"
        }
      ],
      "name": "borrowGivenCollateralETHAsset",
      "outputs": [
        {
          "internalType": "uint256",
          "name": "id",
          "type": "uint256"
        },
        {
          "components": [
            {
              "internalType": "uint112",
              "name": "debt",
              "type": "uint112"
            },
            {
              "internalType": "uint112",
              "name": "collateral",
              "type": "uint112"
            },
            {
              "internalType": "uint32",
              "name": "startBlock",
              "type": "uint32"
            }
          ],
          "internalType": "struct IPair.Due",
          "name": "dueOut",
          "type": "tuple"
        }
      ],
      "stateMutability": "nonpayable",
      "type": "function"
    },
    {
      "inputs": [
        {
          "components": [
            {
              "internalType": "contract IERC20",
              "name": "asset",
              "type": "address"
            },
            {
              "internalType": "uint256",
              "name": "maturity",
              "type": "uint256"
            },
            {
              "internalType": "address",
              "name": "assetTo",
              "type": "address"
            },
            {
              "internalType": "address",
              "name": "dueTo",
              "type": "address"
            },
            {
              "internalType": "uint112",
              "name": "assetOut",
              "type": "uint112"
            },
            {
              "internalType": "uint112",
              "name": "maxDebt",
              "type": "uint112"
            },
            {
              "internalType": "uint256",
              "name": "deadline",
              "type": "uint256"
            }
          ],
          "internalType": "struct IBorrow.BorrowGivenCollateralETHCollateral",
          "name": "params",
          "type": "tuple"
        }
      ],
      "name": "borrowGivenCollateralETHCollateral",
      "outputs": [
        {
          "internalType": "uint256",
          "name": "id",
          "type": "uint256"
        },
        {
          "components": [
            {
              "internalType": "uint112",
              "name": "debt",
              "type": "uint112"
            },
            {
              "internalType": "uint112",
              "name": "collateral",
              "type": "uint112"
            },
            {
              "internalType": "uint32",
              "name": "startBlock",
              "type": "uint32"
            }
          ],
          "internalType": "struct IPair.Due",
          "name": "dueOut",
          "type": "tuple"
        }
      ],
      "stateMutability": "payable",
      "type": "function"
    },
    {
      "inputs": [
        {
          "components": [
            {
              "internalType": "contract IERC20",
              "name": "asset",
              "type": "address"
            },
            {
              "internalType": "contract IERC20",
              "name": "collateral",
              "type": "address"
            },
            {
              "internalType": "uint256",
              "name": "maturity",
              "type": "uint256"
            },
            {
              "internalType": "address",
              "name": "assetTo",
              "type": "address"
            },
            {
              "internalType": "address",
              "name": "dueTo",
              "type": "address"
            },
            {
              "internalType": "uint112",
              "name": "assetOut",
              "type": "uint112"
            },
            {
              "internalType": "uint112",
              "name": "debtIn",
              "type": "uint112"
            },
            {
              "internalType": "uint112",
              "name": "maxCollateral",
              "type": "uint112"
            },
            {
              "internalType": "uint256",
              "name": "deadline",
              "type": "uint256"
            }
          ],
          "internalType": "struct IBorrow.BorrowGivenDebt",
          "name": "params",
          "type": "tuple"
        }
      ],
      "name": "borrowGivenDebt",
      "outputs": [
        {
          "internalType": "uint256",
          "name": "id",
          "type": "uint256"
        },
        {
          "components": [
            {
              "internalType": "uint112",
              "name": "debt",
              "type": "uint112"
            },
            {
              "internalType": "uint112",
              "name": "collateral",
              "type": "uint112"
            },
            {
              "internalType": "uint32",
              "name": "startBlock",
              "type": "uint32"
            }
          ],
          "internalType": "struct IPair.Due",
          "name": "dueOut",
          "type": "tuple"
        }
      ],
      "stateMutability": "nonpayable",
      "type": "function"
    },
    {
      "inputs": [
        {
          "components": [
            {
              "internalType": "contract IERC20",
              "name": "collateral",
              "type": "address"
            },
            {
              "internalType": "uint256",
              "name": "maturity",
              "type": "uint256"
            },
            {
              "internalType": "address payable",
              "name": "assetTo",
              "type": "address"
            },
            {
              "internalType": "address",
              "name": "dueTo",
              "type": "address"
            },
            {
              "internalType": "uint112",
              "name": "assetOut",
              "type": "uint112"
            },
            {
              "internalType": "uint112",
              "name": "debtIn",
              "type": "uint112"
            },
            {
              "internalType": "uint112",
              "name": "maxCollateral",
              "type": "uint112"
            },
            {
              "internalType": "uint256",
              "name": "deadline",
              "type": "uint256"
            }
          ],
          "internalType": "struct IBorrow.BorrowGivenDebtETHAsset",
          "name": "params",
          "type": "tuple"
        }
      ],
      "name": "borrowGivenDebtETHAsset",
      "outputs": [
        {
          "internalType": "uint256",
          "name": "id",
          "type": "uint256"
        },
        {
          "components": [
            {
              "internalType": "uint112",
              "name": "debt",
              "type": "uint112"
            },
            {
              "internalType": "uint112",
              "name": "collateral",
              "type": "uint112"
            },
            {
              "internalType": "uint32",
              "name": "startBlock",
              "type": "uint32"
            }
          ],
          "internalType": "struct IPair.Due",
          "name": "dueOut",
          "type": "tuple"
        }
      ],
      "stateMutability": "nonpayable",
      "type": "function"
    },
    {
      "inputs": [
        {
          "components": [
            {
              "internalType": "contract IERC20",
              "name": "asset",
              "type": "address"
            },
            {
              "internalType": "uint256",
              "name": "maturity",
              "type": "uint256"
            },
            {
              "internalType": "address",
              "name": "assetTo",
              "type": "address"
            },
            {
              "internalType": "address",
              "name": "dueTo",
              "type": "address"
            },
            {
              "internalType": "uint112",
              "name": "assetOut",
              "type": "uint112"
            },
            {
              "internalType": "uint112",
              "name": "debtIn",
              "type": "uint112"
            },
            {
              "internalType": "uint256",
              "name": "deadline",
              "type": "uint256"
            }
          ],
          "internalType": "struct IBorrow.BorrowGivenDebtETHCollateral",
          "name": "params",
          "type": "tuple"
        }
      ],
      "name": "borrowGivenDebtETHCollateral",
      "outputs": [
        {
          "internalType": "uint256",
          "name": "id",
          "type": "uint256"
        },
        {
          "components": [
            {
              "internalType": "uint112",
              "name": "debt",
              "type": "uint112"
            },
            {
              "internalType": "uint112",
              "name": "collateral",
              "type": "uint112"
            },
            {
              "internalType": "uint32",
              "name": "startBlock",
              "type": "uint32"
            }
          ],
          "internalType": "struct IPair.Due",
          "name": "dueOut",
          "type": "tuple"
        }
      ],
      "stateMutability": "payable",
      "type": "function"
    },
    {
      "inputs": [
        {
          "components": [
            {
              "internalType": "contract IERC20",
              "name": "asset",
              "type": "address"
            },
            {
              "internalType": "contract IERC20",
              "name": "collateral",
              "type": "address"
            },
            {
              "internalType": "uint256",
              "name": "maturity",
              "type": "uint256"
            },
            {
              "internalType": "address",
              "name": "assetTo",
              "type": "address"
            },
            {
              "internalType": "address",
              "name": "dueTo",
              "type": "address"
            },
            {
              "internalType": "uint112",
              "name": "assetOut",
              "type": "uint112"
            },
            {
              "internalType": "uint40",
              "name": "percent",
              "type": "uint40"
            },
            {
              "internalType": "uint112",
              "name": "maxDebt",
              "type": "uint112"
            },
            {
              "internalType": "uint112",
              "name": "maxCollateral",
              "type": "uint112"
            },
            {
              "internalType": "uint256",
              "name": "deadline",
              "type": "uint256"
            }
          ],
          "internalType": "struct IBorrow.BorrowGivenPercent",
          "name": "params",
          "type": "tuple"
        }
      ],
      "name": "borrowGivenPercent",
      "outputs": [
        {
          "internalType": "uint256",
          "name": "id",
          "type": "uint256"
        },
        {
          "components": [
            {
              "internalType": "uint112",
              "name": "debt",
              "type": "uint112"
            },
            {
              "internalType": "uint112",
              "name": "collateral",
              "type": "uint112"
            },
            {
              "internalType": "uint32",
              "name": "startBlock",
              "type": "uint32"
            }
          ],
          "internalType": "struct IPair.Due",
          "name": "dueOut",
          "type": "tuple"
        }
      ],
      "stateMutability": "nonpayable",
      "type": "function"
    },
    {
      "inputs": [
        {
          "components": [
            {
              "internalType": "contract IERC20",
              "name": "collateral",
              "type": "address"
            },
            {
              "internalType": "uint256",
              "name": "maturity",
              "type": "uint256"
            },
            {
              "internalType": "address payable",
              "name": "assetTo",
              "type": "address"
            },
            {
              "internalType": "address",
              "name": "dueTo",
              "type": "address"
            },
            {
              "internalType": "uint112",
              "name": "assetOut",
              "type": "uint112"
            },
            {
              "internalType": "uint40",
              "name": "percent",
              "type": "uint40"
            },
            {
              "internalType": "uint112",
              "name": "maxDebt",
              "type": "uint112"
            },
            {
              "internalType": "uint112",
              "name": "maxCollateral",
              "type": "uint112"
            },
            {
              "internalType": "uint256",
              "name": "deadline",
              "type": "uint256"
            }
          ],
          "internalType": "struct IBorrow.BorrowGivenPercentETHAsset",
          "name": "params",
          "type": "tuple"
        }
      ],
      "name": "borrowGivenPercentETHAsset",
      "outputs": [
        {
          "internalType": "uint256",
          "name": "id",
          "type": "uint256"
        },
        {
          "components": [
            {
              "internalType": "uint112",
              "name": "debt",
              "type": "uint112"
            },
            {
              "internalType": "uint112",
              "name": "collateral",
              "type": "uint112"
            },
            {
              "internalType": "uint32",
              "name": "startBlock",
              "type": "uint32"
            }
          ],
          "internalType": "struct IPair.Due",
          "name": "dueOut",
          "type": "tuple"
        }
      ],
      "stateMutability": "nonpayable",
      "type": "function"
    },
    {
      "inputs": [
        {
          "components": [
            {
              "internalType": "contract IERC20",
              "name": "asset",
              "type": "address"
            },
            {
              "internalType": "uint256",
              "name": "maturity",
              "type": "uint256"
            },
            {
              "internalType": "address",
              "name": "assetTo",
              "type": "address"
            },
            {
              "internalType": "address",
              "name": "dueTo",
              "type": "address"
            },
            {
              "internalType": "uint112",
              "name": "assetOut",
              "type": "uint112"
            },
            {
              "internalType": "uint40",
              "name": "percent",
              "type": "uint40"
            },
            {
              "internalType": "uint112",
              "name": "maxDebt",
              "type": "uint112"
            },
            {
              "internalType": "uint256",
              "name": "deadline",
              "type": "uint256"
            }
          ],
          "internalType": "struct IBorrow.BorrowGivenPercentETHCollateral",
          "name": "params",
          "type": "tuple"
        }
      ],
      "name": "borrowGivenPercentETHCollateral",
      "outputs": [
        {
          "internalType": "uint256",
          "name": "id",
          "type": "uint256"
        },
        {
          "components": [
            {
              "internalType": "uint112",
              "name": "debt",
              "type": "uint112"
            },
            {
              "internalType": "uint112",
              "name": "collateral",
              "type": "uint112"
            },
            {
              "internalType": "uint32",
              "name": "startBlock",
              "type": "uint32"
            }
          ],
          "internalType": "struct IPair.Due",
          "name": "dueOut",
          "type": "tuple"
        }
      ],
      "stateMutability": "payable",
      "type": "function"
    },
    {
      "inputs": [
        {
          "internalType": "contract IPair",
          "name": "pair",
          "type": "address"
        },
        {
          "internalType": "uint256",
          "name": "maturity",
          "type": "uint256"
        },
        {
          "internalType": "uint128",
          "name": "assetIn",
          "type": "uint128"
        },
        {
          "internalType": "bytes",
          "name": "data",
          "type": "bytes"
        }
      ],
      "name": "collateralizedDebtCallback",
      "outputs": [],
      "stateMutability": "nonpayable",
      "type": "function"
    },
    {
      "inputs": [
        {
          "components": [
            {
              "internalType": "contract IERC20",
              "name": "asset",
              "type": "address"
            },
            {
              "internalType": "contract IERC20",
              "name": "collateral",
              "type": "address"
            },
            {
              "internalType": "uint256",
              "name": "maturity",
              "type": "uint256"
            },
            {
              "internalType": "address",
              "name": "assetTo",
              "type": "address"
            },
            {
              "internalType": "address",
              "name": "collateralTo",
              "type": "address"
            },
            {
              "components": [
                {
                  "internalType": "uint128",
                  "name": "bond",
                  "type": "uint128"
                },
                {
                  "internalType": "uint128",
                  "name": "insurance",
                  "type": "uint128"
                }
              ],
              "internalType": "struct IPair.Claims",
              "name": "claimsIn",
              "type": "tuple"
            }
          ],
          "internalType": "struct IWithdraw.Collect",
          "name": "params",
          "type": "tuple"
        }
      ],
      "name": "collect",
      "outputs": [
        {
          "components": [
            {
              "internalType": "uint128",
              "name": "asset",
              "type": "uint128"
            },
            {
              "internalType": "uint128",
              "name": "collateral",
              "type": "uint128"
            }
          ],
          "internalType": "struct IPair.Tokens",
          "name": "tokensOut",
          "type": "tuple"
        }
      ],
      "stateMutability": "nonpayable",
      "type": "function"
    },
    {
      "inputs": [
        {
          "components": [
            {
              "internalType": "contract IERC20",
              "name": "collateral",
              "type": "address"
            },
            {
              "internalType": "uint256",
              "name": "maturity",
              "type": "uint256"
            },
            {
              "internalType": "address payable",
              "name": "assetTo",
              "type": "address"
            },
            {
              "internalType": "address",
              "name": "collateralTo",
              "type": "address"
            },
            {
              "components": [
                {
                  "internalType": "uint128",
                  "name": "bond",
                  "type": "uint128"
                },
                {
                  "internalType": "uint128",
                  "name": "insurance",
                  "type": "uint128"
                }
              ],
              "internalType": "struct IPair.Claims",
              "name": "claimsIn",
              "type": "tuple"
            }
          ],
          "internalType": "struct IWithdraw.CollectETHAsset",
          "name": "params",
          "type": "tuple"
        }
      ],
      "name": "collectETHAsset",
      "outputs": [
        {
          "components": [
            {
              "internalType": "uint128",
              "name": "asset",
              "type": "uint128"
            },
            {
              "internalType": "uint128",
              "name": "collateral",
              "type": "uint128"
            }
          ],
          "internalType": "struct IPair.Tokens",
          "name": "tokensOut",
          "type": "tuple"
        }
      ],
      "stateMutability": "nonpayable",
      "type": "function"
    },
    {
      "inputs": [
        {
          "components": [
            {
              "internalType": "contract IERC20",
              "name": "asset",
              "type": "address"
            },
            {
              "internalType": "uint256",
              "name": "maturity",
              "type": "uint256"
            },
            {
              "internalType": "address",
              "name": "assetTo",
              "type": "address"
            },
            {
              "internalType": "address payable",
              "name": "collateralTo",
              "type": "address"
            },
            {
              "components": [
                {
                  "internalType": "uint128",
                  "name": "bond",
                  "type": "uint128"
                },
                {
                  "internalType": "uint128",
                  "name": "insurance",
                  "type": "uint128"
                }
              ],
              "internalType": "struct IPair.Claims",
              "name": "claimsIn",
              "type": "tuple"
            }
          ],
          "internalType": "struct IWithdraw.CollectETHCollateral",
          "name": "params",
          "type": "tuple"
        }
      ],
      "name": "collectETHCollateral",
      "outputs": [
        {
          "components": [
            {
              "internalType": "uint128",
              "name": "asset",
              "type": "uint128"
            },
            {
              "internalType": "uint128",
              "name": "collateral",
              "type": "uint128"
            }
          ],
          "internalType": "struct IPair.Tokens",
          "name": "tokensOut",
          "type": "tuple"
        }
      ],
      "stateMutability": "nonpayable",
      "type": "function"
    },
    {
      "inputs": [
        {
          "components": [
            {
              "internalType": "contract IERC20",
              "name": "asset",
              "type": "address"
            },
            {
              "internalType": "contract IERC20",
              "name": "collateral",
              "type": "address"
            },
            {
              "internalType": "uint256",
              "name": "maturity",
              "type": "uint256"
            },
            {
              "internalType": "uint256",
              "name": "deadline",
              "type": "uint256"
            }
          ],
          "internalType": "struct IDeployNative.Deploy",
          "name": "params",
          "type": "tuple"
        }
      ],
      "name": "deployNative",
      "outputs": [],
      "stateMutability": "nonpayable",
      "type": "function"
    },
    {
      "inputs": [],
      "name": "factory",
      "outputs": [
        {
          "internalType": "contract IFactory",
          "name": "",
          "type": "address"
        }
      ],
      "stateMutability": "view",
      "type": "function"
    },
    {
      "inputs": [
        {
          "internalType": "contract IERC20",
          "name": "asset",
          "type": "address"
        },
        {
          "internalType": "contract IERC20",
          "name": "collateral",
          "type": "address"
        },
        {
          "internalType": "uint256",
          "name": "maturity",
          "type": "uint256"
        }
      ],
      "name": "getNative",
      "outputs": [
        {
          "components": [
            {
              "internalType": "contract ILiquidity",
              "name": "liquidity",
              "type": "address"
            },
            {
              "internalType": "contract IClaim",
              "name": "bond",
              "type": "address"
            },
            {
              "internalType": "contract IClaim",
              "name": "insurance",
              "type": "address"
            },
            {
              "internalType": "contract IDue",
              "name": "collateralizedDebt",
              "type": "address"
            }
          ],
          "internalType": "struct IConvenience.Native",
          "name": "",
          "type": "tuple"
        }
      ],
      "stateMutability": "view",
      "type": "function"
    },
    {
      "inputs": [
        {
          "components": [
            {
              "internalType": "contract IERC20",
              "name": "asset",
              "type": "address"
            },
            {
              "internalType": "contract IERC20",
              "name": "collateral",
              "type": "address"
            },
            {
              "internalType": "uint256",
              "name": "maturity",
              "type": "uint256"
            },
            {
              "internalType": "address",
              "name": "bondTo",
              "type": "address"
            },
            {
              "internalType": "address",
              "name": "insuranceTo",
              "type": "address"
            },
            {
              "internalType": "uint112",
              "name": "assetIn",
              "type": "uint112"
            },
            {
              "internalType": "uint128",
              "name": "bondOut",
              "type": "uint128"
            },
            {
              "internalType": "uint128",
              "name": "minInsurance",
              "type": "uint128"
            },
            {
              "internalType": "uint256",
              "name": "deadline",
              "type": "uint256"
            }
          ],
          "internalType": "struct ILend.LendGivenBond",
          "name": "params",
          "type": "tuple"
        }
      ],
      "name": "lendGivenBond",
      "outputs": [
        {
          "components": [
            {
              "internalType": "uint128",
              "name": "bond",
              "type": "uint128"
            },
            {
              "internalType": "uint128",
              "name": "insurance",
              "type": "uint128"
            }
          ],
          "internalType": "struct IPair.Claims",
          "name": "claimsOut",
          "type": "tuple"
        }
      ],
      "stateMutability": "nonpayable",
      "type": "function"
    },
    {
      "inputs": [
        {
          "components": [
            {
              "internalType": "contract IERC20",
              "name": "collateral",
              "type": "address"
            },
            {
              "internalType": "uint256",
              "name": "maturity",
              "type": "uint256"
            },
            {
              "internalType": "address",
              "name": "bondTo",
              "type": "address"
            },
            {
              "internalType": "address",
              "name": "insuranceTo",
              "type": "address"
            },
            {
              "internalType": "uint128",
              "name": "bondOut",
              "type": "uint128"
            },
            {
              "internalType": "uint128",
              "name": "minInsurance",
              "type": "uint128"
            },
            {
              "internalType": "uint256",
              "name": "deadline",
              "type": "uint256"
            }
          ],
          "internalType": "struct ILend.LendGivenBondETHAsset",
          "name": "params",
          "type": "tuple"
        }
      ],
      "name": "lendGivenBondETHAsset",
      "outputs": [
        {
          "components": [
            {
              "internalType": "uint128",
              "name": "bond",
              "type": "uint128"
            },
            {
              "internalType": "uint128",
              "name": "insurance",
              "type": "uint128"
            }
          ],
          "internalType": "struct IPair.Claims",
          "name": "claimsOut",
          "type": "tuple"
        }
      ],
      "stateMutability": "payable",
      "type": "function"
    },
    {
      "inputs": [
        {
          "components": [
            {
              "internalType": "contract IERC20",
              "name": "asset",
              "type": "address"
            },
            {
              "internalType": "uint256",
              "name": "maturity",
              "type": "uint256"
            },
            {
              "internalType": "address",
              "name": "bondTo",
              "type": "address"
            },
            {
              "internalType": "address",
              "name": "insuranceTo",
              "type": "address"
            },
            {
              "internalType": "uint112",
              "name": "assetIn",
              "type": "uint112"
            },
            {
              "internalType": "uint128",
              "name": "bondOut",
              "type": "uint128"
            },
            {
              "internalType": "uint128",
              "name": "minInsurance",
              "type": "uint128"
            },
            {
              "internalType": "uint256",
              "name": "deadline",
              "type": "uint256"
            }
          ],
          "internalType": "struct ILend.LendGivenBondETHCollateral",
          "name": "params",
          "type": "tuple"
        }
      ],
      "name": "lendGivenBondETHCollateral",
      "outputs": [
        {
          "components": [
            {
              "internalType": "uint128",
              "name": "bond",
              "type": "uint128"
            },
            {
              "internalType": "uint128",
              "name": "insurance",
              "type": "uint128"
            }
          ],
          "internalType": "struct IPair.Claims",
          "name": "claimsOut",
          "type": "tuple"
        }
      ],
      "stateMutability": "payable",
      "type": "function"
    },
    {
      "inputs": [
        {
          "components": [
            {
              "internalType": "contract IERC20",
              "name": "asset",
              "type": "address"
            },
            {
              "internalType": "contract IERC20",
              "name": "collateral",
              "type": "address"
            },
            {
              "internalType": "uint256",
              "name": "maturity",
              "type": "uint256"
            },
            {
              "internalType": "address",
              "name": "bondTo",
              "type": "address"
            },
            {
              "internalType": "address",
              "name": "insuranceTo",
              "type": "address"
            },
            {
              "internalType": "uint112",
              "name": "assetIn",
              "type": "uint112"
            },
            {
              "internalType": "uint128",
              "name": "insuranceOut",
              "type": "uint128"
            },
            {
              "internalType": "uint128",
              "name": "minBond",
              "type": "uint128"
            },
            {
              "internalType": "uint256",
              "name": "deadline",
              "type": "uint256"
            }
          ],
          "internalType": "struct ILend.LendGivenInsurance",
          "name": "params",
          "type": "tuple"
        }
      ],
      "name": "lendGivenInsurance",
      "outputs": [
        {
          "components": [
            {
              "internalType": "uint128",
              "name": "bond",
              "type": "uint128"
            },
            {
              "internalType": "uint128",
              "name": "insurance",
              "type": "uint128"
            }
          ],
          "internalType": "struct IPair.Claims",
          "name": "claimsOut",
          "type": "tuple"
        }
      ],
      "stateMutability": "nonpayable",
      "type": "function"
    },
    {
      "inputs": [
        {
          "components": [
            {
              "internalType": "contract IERC20",
              "name": "collateral",
              "type": "address"
            },
            {
              "internalType": "uint256",
              "name": "maturity",
              "type": "uint256"
            },
            {
              "internalType": "address",
              "name": "bondTo",
              "type": "address"
            },
            {
              "internalType": "address",
              "name": "insuranceTo",
              "type": "address"
            },
            {
              "internalType": "uint128",
              "name": "insuranceOut",
              "type": "uint128"
            },
            {
              "internalType": "uint128",
              "name": "minBond",
              "type": "uint128"
            },
            {
              "internalType": "uint256",
              "name": "deadline",
              "type": "uint256"
            }
          ],
          "internalType": "struct ILend.LendGivenInsuranceETHAsset",
          "name": "params",
          "type": "tuple"
        }
      ],
      "name": "lendGivenInsuranceETHAsset",
      "outputs": [
        {
          "components": [
            {
              "internalType": "uint128",
              "name": "bond",
              "type": "uint128"
            },
            {
              "internalType": "uint128",
              "name": "insurance",
              "type": "uint128"
            }
          ],
          "internalType": "struct IPair.Claims",
          "name": "claimsOut",
          "type": "tuple"
        }
      ],
      "stateMutability": "payable",
      "type": "function"
    },
    {
      "inputs": [
        {
          "components": [
            {
              "internalType": "contract IERC20",
              "name": "asset",
              "type": "address"
            },
            {
              "internalType": "uint256",
              "name": "maturity",
              "type": "uint256"
            },
            {
              "internalType": "address",
              "name": "bondTo",
              "type": "address"
            },
            {
              "internalType": "address",
              "name": "insuranceTo",
              "type": "address"
            },
            {
              "internalType": "uint112",
              "name": "assetIn",
              "type": "uint112"
            },
            {
              "internalType": "uint128",
              "name": "insuranceOut",
              "type": "uint128"
            },
            {
              "internalType": "uint128",
              "name": "minBond",
              "type": "uint128"
            },
            {
              "internalType": "uint256",
              "name": "deadline",
              "type": "uint256"
            }
          ],
          "internalType": "struct ILend.LendGivenInsuranceETHCollateral",
          "name": "params",
          "type": "tuple"
        }
      ],
      "name": "lendGivenInsuranceETHCollateral",
      "outputs": [
        {
          "components": [
            {
              "internalType": "uint128",
              "name": "bond",
              "type": "uint128"
            },
            {
              "internalType": "uint128",
              "name": "insurance",
              "type": "uint128"
            }
          ],
          "internalType": "struct IPair.Claims",
          "name": "claimsOut",
          "type": "tuple"
        }
      ],
      "stateMutability": "nonpayable",
      "type": "function"
    },
    {
      "inputs": [
        {
          "components": [
            {
              "internalType": "contract IERC20",
              "name": "asset",
              "type": "address"
            },
            {
              "internalType": "contract IERC20",
              "name": "collateral",
              "type": "address"
            },
            {
              "internalType": "uint256",
              "name": "maturity",
              "type": "uint256"
            },
            {
              "internalType": "address",
              "name": "bondTo",
              "type": "address"
            },
            {
              "internalType": "address",
              "name": "insuranceTo",
              "type": "address"
            },
            {
              "internalType": "uint112",
              "name": "assetIn",
              "type": "uint112"
            },
            {
              "internalType": "uint40",
              "name": "percent",
              "type": "uint40"
            },
            {
              "internalType": "uint128",
              "name": "minBond",
              "type": "uint128"
            },
            {
              "internalType": "uint128",
              "name": "minInsurance",
              "type": "uint128"
            },
            {
              "internalType": "uint256",
              "name": "deadline",
              "type": "uint256"
            }
          ],
          "internalType": "struct ILend.LendGivenPercent",
          "name": "params",
          "type": "tuple"
        }
      ],
      "name": "lendGivenPercent",
      "outputs": [
        {
          "components": [
            {
              "internalType": "uint128",
              "name": "bond",
              "type": "uint128"
            },
            {
              "internalType": "uint128",
              "name": "insurance",
              "type": "uint128"
            }
          ],
          "internalType": "struct IPair.Claims",
          "name": "claimsOut",
          "type": "tuple"
        }
      ],
      "stateMutability": "nonpayable",
      "type": "function"
    },
    {
      "inputs": [
        {
          "components": [
            {
              "internalType": "contract IERC20",
              "name": "collateral",
              "type": "address"
            },
            {
              "internalType": "uint256",
              "name": "maturity",
              "type": "uint256"
            },
            {
              "internalType": "address",
              "name": "bondTo",
              "type": "address"
            },
            {
              "internalType": "address",
              "name": "insuranceTo",
              "type": "address"
            },
            {
              "internalType": "uint40",
              "name": "percent",
              "type": "uint40"
            },
            {
              "internalType": "uint128",
              "name": "minBond",
              "type": "uint128"
            },
            {
              "internalType": "uint128",
              "name": "minInsurance",
              "type": "uint128"
            },
            {
              "internalType": "uint256",
              "name": "deadline",
              "type": "uint256"
            }
          ],
          "internalType": "struct ILend.LendGivenPercentETHAsset",
          "name": "params",
          "type": "tuple"
        }
      ],
      "name": "lendGivenPercentETHAsset",
      "outputs": [
        {
          "components": [
            {
              "internalType": "uint128",
              "name": "bond",
              "type": "uint128"
            },
            {
              "internalType": "uint128",
              "name": "insurance",
              "type": "uint128"
            }
          ],
          "internalType": "struct IPair.Claims",
          "name": "claimsOut",
          "type": "tuple"
        }
      ],
      "stateMutability": "payable",
      "type": "function"
    },
    {
      "inputs": [
        {
          "components": [
            {
              "internalType": "contract IERC20",
              "name": "asset",
              "type": "address"
            },
            {
              "internalType": "uint256",
              "name": "maturity",
              "type": "uint256"
            },
            {
              "internalType": "address",
              "name": "bondTo",
              "type": "address"
            },
            {
              "internalType": "address",
              "name": "insuranceTo",
              "type": "address"
            },
            {
              "internalType": "uint112",
              "name": "assetIn",
              "type": "uint112"
            },
            {
              "internalType": "uint40",
              "name": "percent",
              "type": "uint40"
            },
            {
              "internalType": "uint128",
              "name": "minBond",
              "type": "uint128"
            },
            {
              "internalType": "uint128",
              "name": "minInsurance",
              "type": "uint128"
            },
            {
              "internalType": "uint256",
              "name": "deadline",
              "type": "uint256"
            }
          ],
          "internalType": "struct ILend.LendGivenPercentETHCollateral",
          "name": "params",
          "type": "tuple"
        }
      ],
      "name": "lendGivenPercentETHCollateral",
      "outputs": [
        {
          "components": [
            {
              "internalType": "uint128",
              "name": "bond",
              "type": "uint128"
            },
            {
              "internalType": "uint128",
              "name": "insurance",
              "type": "uint128"
            }
          ],
          "internalType": "struct IPair.Claims",
          "name": "claimsOut",
          "type": "tuple"
        }
      ],
      "stateMutability": "nonpayable",
      "type": "function"
    },
    {
      "inputs": [
        {
          "components": [
            {
              "internalType": "contract IERC20",
              "name": "asset",
              "type": "address"
            },
            {
              "internalType": "contract IERC20",
              "name": "collateral",
              "type": "address"
            },
            {
              "internalType": "uint256",
              "name": "maturity",
              "type": "uint256"
            },
            {
              "internalType": "address",
              "name": "liquidityTo",
              "type": "address"
            },
            {
              "internalType": "address",
              "name": "dueTo",
              "type": "address"
            },
            {
              "internalType": "uint112",
              "name": "assetIn",
              "type": "uint112"
            },
            {
              "internalType": "uint112",
              "name": "debtOut",
              "type": "uint112"
            },
            {
              "internalType": "uint112",
              "name": "collateralIn",
              "type": "uint112"
            },
            {
              "internalType": "uint256",
              "name": "deadline",
              "type": "uint256"
            }
          ],
          "internalType": "struct IMint.NewLiquidity",
          "name": "params",
          "type": "tuple"
        }
      ],
      "name": "newLiquidity",
      "outputs": [
        {
          "internalType": "uint256",
          "name": "liquidityOut",
          "type": "uint256"
        },
        {
          "internalType": "uint256",
          "name": "id",
          "type": "uint256"
        },
        {
          "components": [
            {
              "internalType": "uint112",
              "name": "debt",
              "type": "uint112"
            },
            {
              "internalType": "uint112",
              "name": "collateral",
              "type": "uint112"
            },
            {
              "internalType": "uint32",
              "name": "startBlock",
              "type": "uint32"
            }
          ],
          "internalType": "struct IPair.Due",
          "name": "dueOut",
          "type": "tuple"
        }
      ],
      "stateMutability": "nonpayable",
      "type": "function"
    },
    {
      "inputs": [
        {
          "components": [
            {
              "internalType": "contract IERC20",
              "name": "collateral",
              "type": "address"
            },
            {
              "internalType": "uint256",
              "name": "maturity",
              "type": "uint256"
            },
            {
              "internalType": "address",
              "name": "liquidityTo",
              "type": "address"
            },
            {
              "internalType": "address",
              "name": "dueTo",
              "type": "address"
            },
            {
              "internalType": "uint112",
              "name": "debtOut",
              "type": "uint112"
            },
            {
              "internalType": "uint112",
              "name": "collateralIn",
              "type": "uint112"
            },
            {
              "internalType": "uint256",
              "name": "deadline",
              "type": "uint256"
            }
          ],
          "internalType": "struct IMint.NewLiquidityETHAsset",
          "name": "params",
          "type": "tuple"
        }
      ],
      "name": "newLiquidityETHAsset",
      "outputs": [
        {
          "internalType": "uint256",
          "name": "liquidityOut",
          "type": "uint256"
        },
        {
          "internalType": "uint256",
          "name": "id",
          "type": "uint256"
        },
        {
          "components": [
            {
              "internalType": "uint112",
              "name": "debt",
              "type": "uint112"
            },
            {
              "internalType": "uint112",
              "name": "collateral",
              "type": "uint112"
            },
            {
              "internalType": "uint32",
              "name": "startBlock",
              "type": "uint32"
            }
          ],
          "internalType": "struct IPair.Due",
          "name": "dueOut",
          "type": "tuple"
        }
      ],
      "stateMutability": "payable",
      "type": "function"
    },
    {
      "inputs": [
        {
          "components": [
            {
              "internalType": "contract IERC20",
              "name": "asset",
              "type": "address"
            },
            {
              "internalType": "uint256",
              "name": "maturity",
              "type": "uint256"
            },
            {
              "internalType": "address",
              "name": "liquidityTo",
              "type": "address"
            },
            {
              "internalType": "address",
              "name": "dueTo",
              "type": "address"
            },
            {
              "internalType": "uint112",
              "name": "assetIn",
              "type": "uint112"
            },
            {
              "internalType": "uint112",
              "name": "debtOut",
              "type": "uint112"
            },
            {
              "internalType": "uint256",
              "name": "deadline",
              "type": "uint256"
            }
          ],
          "internalType": "struct IMint.NewLiquidityETHCollateral",
          "name": "params",
          "type": "tuple"
        }
      ],
      "name": "newLiquidityETHCollateral",
      "outputs": [
        {
          "internalType": "uint256",
          "name": "liquidityOut",
          "type": "uint256"
        },
        {
          "internalType": "uint256",
          "name": "id",
          "type": "uint256"
        },
        {
          "components": [
            {
              "internalType": "uint112",
              "name": "debt",
              "type": "uint112"
            },
            {
              "internalType": "uint112",
              "name": "collateral",
              "type": "uint112"
            },
            {
              "internalType": "uint32",
              "name": "startBlock",
              "type": "uint32"
            }
          ],
          "internalType": "struct IPair.Due",
          "name": "dueOut",
          "type": "tuple"
        }
      ],
      "stateMutability": "payable",
      "type": "function"
    },
    {
      "inputs": [
        {
          "components": [
            {
              "internalType": "contract IERC20",
              "name": "asset",
              "type": "address"
            },
            {
              "internalType": "contract IERC20",
              "name": "collateral",
              "type": "address"
            },
            {
              "internalType": "uint256",
              "name": "maturity",
              "type": "uint256"
            },
            {
              "internalType": "address",
              "name": "assetTo",
              "type": "address"
            },
            {
              "internalType": "address",
              "name": "collateralTo",
              "type": "address"
            },
            {
              "internalType": "uint256",
              "name": "liquidityIn",
              "type": "uint256"
            }
          ],
          "internalType": "struct IBurn.RemoveLiquidity",
          "name": "params",
          "type": "tuple"
        }
      ],
      "name": "removeLiquidity",
      "outputs": [
        {
          "components": [
            {
              "internalType": "uint128",
              "name": "asset",
              "type": "uint128"
            },
            {
              "internalType": "uint128",
              "name": "collateral",
              "type": "uint128"
            }
          ],
          "internalType": "struct IPair.Tokens",
          "name": "tokensOut",
          "type": "tuple"
        }
      ],
      "stateMutability": "nonpayable",
      "type": "function"
    },
    {
      "inputs": [
        {
          "components": [
            {
              "internalType": "contract IERC20",
              "name": "collateral",
              "type": "address"
            },
            {
              "internalType": "uint256",
              "name": "maturity",
              "type": "uint256"
            },
            {
              "internalType": "address payable",
              "name": "assetTo",
              "type": "address"
            },
            {
              "internalType": "address",
              "name": "collateralTo",
              "type": "address"
            },
            {
              "internalType": "uint256",
              "name": "liquidityIn",
              "type": "uint256"
            }
          ],
          "internalType": "struct IBurn.RemoveLiquidityETHAsset",
          "name": "params",
          "type": "tuple"
        }
      ],
      "name": "removeLiquidityETHAsset",
      "outputs": [
        {
          "components": [
            {
              "internalType": "uint128",
              "name": "asset",
              "type": "uint128"
            },
            {
              "internalType": "uint128",
              "name": "collateral",
              "type": "uint128"
            }
          ],
          "internalType": "struct IPair.Tokens",
          "name": "tokensOut",
          "type": "tuple"
        }
      ],
      "stateMutability": "nonpayable",
      "type": "function"
    },
    {
      "inputs": [
        {
          "components": [
            {
              "internalType": "contract IERC20",
              "name": "asset",
              "type": "address"
            },
            {
              "internalType": "uint256",
              "name": "maturity",
              "type": "uint256"
            },
            {
              "internalType": "address",
              "name": "assetTo",
              "type": "address"
            },
            {
              "internalType": "address payable",
              "name": "collateralTo",
              "type": "address"
            },
            {
              "internalType": "uint256",
              "name": "liquidityIn",
              "type": "uint256"
            }
          ],
          "internalType": "struct IBurn.RemoveLiquidityETHCollateral",
          "name": "params",
          "type": "tuple"
        }
      ],
      "name": "removeLiquidityETHCollateral",
      "outputs": [
        {
          "components": [
            {
              "internalType": "uint128",
              "name": "asset",
              "type": "uint128"
            },
            {
              "internalType": "uint128",
              "name": "collateral",
              "type": "uint128"
            }
          ],
          "internalType": "struct IPair.Tokens",
          "name": "tokensOut",
          "type": "tuple"
        }
      ],
      "stateMutability": "nonpayable",
      "type": "function"
    },
    {
      "inputs": [
        {
          "components": [
            {
              "internalType": "contract IERC20",
              "name": "asset",
              "type": "address"
            },
            {
              "internalType": "contract IERC20",
              "name": "collateral",
              "type": "address"
            },
            {
              "internalType": "uint256",
              "name": "maturity",
              "type": "uint256"
            },
            {
              "internalType": "address",
              "name": "collateralTo",
              "type": "address"
            },
            {
              "internalType": "uint256[]",
              "name": "ids",
              "type": "uint256[]"
            },
            {
              "internalType": "uint112[]",
              "name": "maxAssetsIn",
              "type": "uint112[]"
            },
            {
              "internalType": "uint256",
              "name": "deadline",
              "type": "uint256"
            }
          ],
          "internalType": "struct IPay.Repay",
          "name": "params",
          "type": "tuple"
        }
      ],
      "name": "repay",
      "outputs": [
        {
          "internalType": "uint128",
          "name": "assetIn",
          "type": "uint128"
        },
        {
          "internalType": "uint128",
          "name": "collateralOut",
          "type": "uint128"
        }
      ],
      "stateMutability": "nonpayable",
      "type": "function"
    },
    {
      "inputs": [
        {
          "components": [
            {
              "internalType": "contract IERC20",
              "name": "collateral",
              "type": "address"
            },
            {
              "internalType": "uint256",
              "name": "maturity",
              "type": "uint256"
            },
            {
              "internalType": "address",
              "name": "collateralTo",
              "type": "address"
            },
            {
              "internalType": "uint256[]",
              "name": "ids",
              "type": "uint256[]"
            },
            {
              "internalType": "uint112[]",
              "name": "maxAssetsIn",
              "type": "uint112[]"
            },
            {
              "internalType": "uint256",
              "name": "deadline",
              "type": "uint256"
            }
          ],
          "internalType": "struct IPay.RepayETHAsset",
          "name": "params",
          "type": "tuple"
        }
      ],
      "name": "repayETHAsset",
      "outputs": [
        {
          "internalType": "uint128",
          "name": "assetIn",
          "type": "uint128"
        },
        {
          "internalType": "uint128",
          "name": "collateralOut",
          "type": "uint128"
        }
      ],
      "stateMutability": "payable",
      "type": "function"
    },
    {
      "inputs": [
        {
          "components": [
            {
              "internalType": "contract IERC20",
              "name": "asset",
              "type": "address"
            },
            {
              "internalType": "uint256",
              "name": "maturity",
              "type": "uint256"
            },
            {
              "internalType": "address payable",
              "name": "collateralTo",
              "type": "address"
            },
            {
              "internalType": "uint256[]",
              "name": "ids",
              "type": "uint256[]"
            },
            {
              "internalType": "uint112[]",
              "name": "maxAssetsIn",
              "type": "uint112[]"
            },
            {
              "internalType": "uint256",
              "name": "deadline",
              "type": "uint256"
            }
          ],
          "internalType": "struct IPay.RepayETHCollateral",
          "name": "params",
          "type": "tuple"
        }
      ],
      "name": "repayETHCollateral",
      "outputs": [
        {
          "internalType": "uint128",
          "name": "assetIn",
          "type": "uint128"
        },
        {
          "internalType": "uint128",
          "name": "collateralOut",
          "type": "uint128"
        }
      ],
      "stateMutability": "nonpayable",
      "type": "function"
    },
    {
      "inputs": [
        {
          "internalType": "uint112",
          "name": "collateralIn",
          "type": "uint112"
        },
        {
          "internalType": "bytes",
          "name": "data",
          "type": "bytes"
        }
      ],
      "name": "timeswapBorrowCallback",
      "outputs": [],
      "stateMutability": "nonpayable",
      "type": "function"
    },
    {
      "inputs": [
        {
          "internalType": "uint112",
          "name": "assetIn",
          "type": "uint112"
        },
        {
          "internalType": "bytes",
          "name": "data",
          "type": "bytes"
        }
      ],
      "name": "timeswapLendCallback",
      "outputs": [],
      "stateMutability": "nonpayable",
      "type": "function"
    },
    {
      "inputs": [
        {
          "internalType": "uint112",
          "name": "assetIn",
          "type": "uint112"
        },
        {
          "internalType": "uint112",
          "name": "collateralIn",
          "type": "uint112"
        },
        {
          "internalType": "bytes",
          "name": "data",
          "type": "bytes"
        }
      ],
      "name": "timeswapMintCallback",
      "outputs": [],
      "stateMutability": "nonpayable",
      "type": "function"
    },
    {
      "inputs": [],
      "name": "weth",
      "outputs": [
        {
          "internalType": "contract IWETH",
          "name": "",
          "type": "address"
        }
      ],
      "stateMutability": "view",
      "type": "function"
    }
  ],
  "bytecode": "0x60c06040523480156200001157600080fd5b50604051620042c4380380620042c4833981016040819052620000349162000053565b6001600160601b0319606092831b8116608052911b1660a052620000aa565b6000806040838503121562000066578182fd5b8251620000738162000091565b6020840151909250620000868162000091565b809150509250929050565b6001600160a01b0381168114620000a757600080fd5b50565b60805160601c60a05160601c61402e62000296600039600081816108310152818161091601528181610a8601528181610bc701528181610c5c01528181610da001528181610ec601528181610f4e01528181610fd40152818161105c015281816112d50152818161142e01528181611554015281816115de015281816116cc01528181611756015281816118040152818161188f015281816119170152818161199d01528181611a1f01528181611b0901528181611b9101528181611c1b01528181611d6101528181611e3101528181611f4a0152611fd00152600081816107520152818161080f015281816108f4015281816109d101528181610a6401528181610b3d01528181610ba501528181610c3001528181610c9801528181610ea401528181610f2c01528181610fb20152818161103a015281816110c40152818161112c01528181611192015281816111d601528181611532015281816115bc01528181611644015281816116aa0152818161173401528181611782015281816117e20152818161186d015281816118f50152818161197b015281816119fd01528181611a8301528181611ae701528181611b6f01528181611bf901528181611c6201528181611f2801528181611fae01528181612039015281816120990152612173015261402e6000f3fe6080604052600436106102465760003560e01c80639f4f7e7411610139578063e3af0a7b116100b6578063f5590f511161007a578063f5590f5114610656578063f6d0e51514610669578063f865f57114610689578063f8f808a1146106a9578063f9713d13146106c9578063feee4af4146106f657610246565b8063e3af0a7b146105d0578063e6478aad146105f0578063e76a364e14610610578063e912bab114610623578063eeda4c9f1461063657610246565b8063c59749b8116100fd578063c59749b814610557578063c5dfe8ad14610577578063cd346d4e1461058a578063d39c05051461059d578063d3d841b9146105bd57610246565b80639f4f7e74146104dc578063a60d0716146104fc578063ab2f9aa01461051c578063bd242f1b1461052f578063c45a01551461054257610246565b80634747fb70116101c757806378fbbe8f1161018b57806378fbbe8f1461043c5780637f8507c11461045c57806390e4d0b11461047c57806392c515c21461049c578063989e6ecb146104bc57610246565b80634747fb70146103a9578063483e6793146103c957806354d51c4d146103dc57806365a21b3c146103fc57806375ef46381461041c57610246565b80632cdb7da91161020e5780632cdb7da9146103145780632ebd869f146103345780633a4966b2146103475780633fc8cef3146103675780634437f7c81461038957610246565b806311993d6a1461024b578063145bad6e14610281578063159f14a2146102a257806319023d88146102c45780631a6ec168146102e6575b600080fd5b34801561025757600080fd5b5061026b610266366004612830565b610716565b6040516102789190613eb9565b60405180910390f35b61029461028f366004612815565b6107d1565b604051610278929190613f1c565b6102b56102b03660046127dd565b6108b5565b60405161027893929190613f30565b3480156102d057600080fd5b506102e46102df366004612882565b61099d565b005b3480156102f257600080fd5b506103066103013660046128f5565b610a2e565b604051610278929190613f02565b34801561032057600080fd5b5061029461032f366004612830565b610aff565b6102b5610342366004612815565b610b67565b34801561035357600080fd5b506102b56103623660046127f9565b610bf1565b34801561037357600080fd5b5061037c610c5a565b604051610278919061316b565b34801561039557600080fd5b506102e46103a4366004612a94565b610c7e565b3480156103b557600080fd5b506102946103c43660046127dd565b610e66565b61026b6103d73660046127dd565b610ef0565b3480156103e857600080fd5b5061026b6103f7366004612867565b610f78565b34801561040857600080fd5b5061026b610417366004612830565b610ffe565b34801561042857600080fd5b506102946104373660046127f9565b611086565b34801561044857600080fd5b50610294610457366004612830565b6110ee565b34801561046857600080fd5b5061026b6104773660046127f9565b611156565b34801561048857600080fd5b506102e4610497366004612a94565b6111bc565b3480156104a857600080fd5b506102e46104b736600461276c565b61138d565b3480156104c857600080fd5b5061026b6104d73660046127dd565b6114f6565b3480156104e857600080fd5b506102946104f73660046127dd565b61157e565b34801561050857600080fd5b5061026b610517366004612830565b611608565b61026b61052a366004612815565b61166e565b61029461053d3660046127dd565b6116f6565b34801561054e57600080fd5b5061037c611780565b34801561056357600080fd5b50610294610572366004612830565b6117a4565b6102b5610585366004612815565b61182e565b61026b6105983660046127dd565b6118b9565b3480156105a957600080fd5b5061026b6105b8366004612867565b611941565b6103066105cb3660046128f5565b6119c7565b3480156105dc57600080fd5b5061026b6105eb366004612867565b611a49565b3480156105fc57600080fd5b5061026b61060b3660046128da565b611aad565b61026b61061e366004612815565b611b33565b610294610631366004612815565b611bbb565b34801561064257600080fd5b506102e4610651366004612ae7565b611c45565b6102b56106643660046127dd565b611ee9565b34801561067557600080fd5b5061026b6106843660046128da565b611f74565b34801561069557600080fd5b506102b56106a4366004612830565b611ffa565b3480156106b557600080fd5b506103066106c43660046129bc565b612063565b3480156106d557600080fd5b506106e96106e4366004612710565b6120c3565b6040516102789190613ec7565b34801561070257600080fd5b5061026b610711366004612815565b612139565b61071e61238b565b604051636f862bef60e01b815273__$ef9b1583aa8b70c784530b3e99a5d47ca0$__90636f862bef9061077c9060009030907f0000000000000000000000000000000000000000000000000000000000000000908890600401613d09565b604080518083038186803b15801561079357600080fd5b505af41580156107a7573d6000803e3d6000fd5b505050506040513d601f19601f820116820180604052508101906107cb919061284c565b92915050565b60006107db6123a2565b60405163edecda4560e01b815273__$68a4a9eb8a559a2bbe8803518e4b9e68aa$__9063edecda459061085b9060009030907f0000000000000000000000000000000000000000000000000000000000000000907f0000000000000000000000000000000000000000000000000000000000000000908a90600401613684565b60806040518083038186803b15801561087357600080fd5b505af4158015610887573d6000803e3d6000fd5b505050506040513d601f19601f820116820180604052508101906108ab9190612b83565b9094909350915050565b6000806108c06123a2565b60405163017ae42b60e71b815273__$c2b2c31495e80ffc48617d6c90e5408064$__9063bd721580906109409060009030907f0000000000000000000000000000000000000000000000000000000000000000907f0000000000000000000000000000000000000000000000000000000000000000908b90600401613596565b60a06040518083038186803b15801561095857600080fd5b505af415801561096c573d6000803e3d6000fd5b505050506040513d601f19601f820116820180604052508101906109909190612baf565b9196909550909350915050565b604051634c3497af60e11b815273__$d87d164c923cbbac45c625a9b8defba0ff$__906398692f5e906109fb9060009030907f0000000000000000000000000000000000000000000000000000000000000000908790600401613cb7565b60006040518083038186803b158015610a1357600080fd5b505af4158015610a27573d6000803e3d6000fd5b5050505050565b604051636cefc79f60e01b8152600090819073__$2d52d68b63af965ebe1a75e8b5f1279f0a$__90636cefc79f90610ab09084907f0000000000000000000000000000000000000000000000000000000000000000907f0000000000000000000000000000000000000000000000000000000000000000908990600401613278565b604080518083038186803b158015610ac757600080fd5b505af4158015610adb573d6000803e3d6000fd5b505050506040513d601f19601f820116820180604052508101906108ab9190612b4a565b6000610b096123a2565b60405163334b723f60e01b815273__$68a4a9eb8a559a2bbe8803518e4b9e68aa$__9063334b723f9061085b9060009030907f0000000000000000000000000000000000000000000000000000000000000000908990600401613b7f565b600080610b726123a2565b604051623ea4ed60e71b815273__$c2b2c31495e80ffc48617d6c90e5408064$__90631f527680906109409060009030907f0000000000000000000000000000000000000000000000000000000000000000907f0000000000000000000000000000000000000000000000000000000000000000908b90600401613684565b600080610bfc6123a2565b6040516379dae78360e11b815273__$c2b2c31495e80ffc48617d6c90e5408064$__9063f3b5cf06906109409060009030907f0000000000000000000000000000000000000000000000000000000000000000908a90600401613a84565b7f000000000000000000000000000000000000000000000000000000000000000081565b60008080610c8e8486018661266b565b92509250925060007f00000000000000000000000000000000000000000000000000000000000000006001600160a01b031663e6a4390585856040518363ffffffff1660e01b8152600401610ce4929190613151565b60206040518083038186803b158015610cfc57600080fd5b505afa158015610d10573d6000803e3d6000fd5b505050506040513d601f19601f82011682018060405250810190610d349190612750565b90506001600160a01b038116610d655760405162461bcd60e51b8152600401610d5c90613e2b565b60405180910390fd5b336001600160a01b03821614610d8d5760405162461bcd60e51b8152600401610d5c90613e51565b6001600160a01b038216301415610e3f577f00000000000000000000000000000000000000000000000000000000000000006001600160a01b031663d0e30db0886001600160701b03166040518263ffffffff1660e01b81526004016000604051808303818588803b158015610e0257600080fd5b505af1158015610e16573d6000803e3d6000fd5b50610e3a935050506001600160a01b0386169050826001600160701b038a1661219d565b610e5d565b610e5d6001600160a01b03851683836001600160701b038b1661228f565b50505050505050565b6000610e706123a2565b604051630ed88ad160e11b815273__$68a4a9eb8a559a2bbe8803518e4b9e68aa$__90631db115a29061085b9060009030907f0000000000000000000000000000000000000000000000000000000000000000907f0000000000000000000000000000000000000000000000000000000000000000908a90600401613646565b610ef861238b565b6040516310d2b20960e31b815273__$ef9b1583aa8b70c784530b3e99a5d47ca0$__9063869590489061077c9060009030907f0000000000000000000000000000000000000000000000000000000000000000907f00000000000000000000000000000000000000000000000000000000000000009089906004016138d2565b610f8061238b565b6040516325e1fad560e11b815273__$392a4b0b1a564fbe4578aaac5e4ee9cd89$__90634bc3f5aa9061077c906000907f0000000000000000000000000000000000000000000000000000000000000000907f000000000000000000000000000000000000000000000000000000000000000090889060040161317f565b61100661238b565b604051632724931160e01b815273__$ef9b1583aa8b70c784530b3e99a5d47ca0$__9063272493119061077c9060009030907f0000000000000000000000000000000000000000000000000000000000000000907f00000000000000000000000000000000000000000000000000000000000000009089906004016139a0565b60006110906123a2565b6040516334af324960e01b815273__$68a4a9eb8a559a2bbe8803518e4b9e68aa$__906334af32499061085b9060009030907f0000000000000000000000000000000000000000000000000000000000000000908990600401613bab565b60006110f86123a2565b604051636cd495a760e11b815273__$68a4a9eb8a559a2bbe8803518e4b9e68aa$__9063d9a92b4e9061085b9060009030907f0000000000000000000000000000000000000000000000000000000000000000908990600401613b7f565b61115e61238b565b60405163e5fa4c4b60e01b815273__$ef9b1583aa8b70c784530b3e99a5d47ca0$__9063e5fa4c4b9061077c9060009030907f0000000000000000000000000000000000000000000000000000000000000000908890600401613d35565b600080806111cc8486018661266b565b92509250925060007f00000000000000000000000000000000000000000000000000000000000000006001600160a01b031663e6a4390585856040518363ffffffff1660e01b8152600401611222929190613151565b60206040518083038186803b15801561123a57600080fd5b505afa15801561124e573d6000803e3d6000fd5b505050506040513d601f19601f820116820180604052508101906112729190612750565b90506001600160a01b03811661129a5760405162461bcd60e51b8152600401610d5c90613e2b565b336001600160a01b038216146112c25760405162461bcd60e51b8152600401610d5c90613e51565b6001600160a01b03821630141561136f577f00000000000000000000000000000000000000000000000000000000000000006001600160a01b031663d0e30db0886001600160701b03166040518263ffffffff1660e01b81526004016000604051808303818588803b15801561133757600080fd5b505af115801561134b573d6000803e3d6000fd5b50610e3a935050506001600160a01b0385169050826001600160701b038a1661219d565b610e5d6001600160a01b03841683836001600160701b038b1661228f565b6000808061139d8486018661266b565b6001600160a01b03808416600090815260208181526040808320848716845282528083208e8452909152902060030154939650919450925016806113f35760405162461bcd60e51b8152600401610d5c90613e95565b336001600160a01b0382161461141b5760405162461bcd60e51b8152600401610d5c90613e51565b6001600160a01b0382163014156114cd577f00000000000000000000000000000000000000000000000000000000000000006001600160a01b031663d0e30db0886001600160801b03166040518263ffffffff1660e01b81526004016000604051808303818588803b15801561149057600080fd5b505af11580156114a4573d6000803e3d6000fd5b506114c8935050506001600160a01b03861690508a6001600160801b038a1661219d565b6114eb565b6114eb6001600160a01b038516838b6001600160801b038b1661228f565b505050505050505050565b6114fe61238b565b604051638ba21e1d60e01b815273__$ef9b1583aa8b70c784530b3e99a5d47ca0$__90638ba21e1d9061077c9060009030907f0000000000000000000000000000000000000000000000000000000000000000907f000000000000000000000000000000000000000000000000000000000000000090899060040161389e565b60006115886123a2565b6040516363ff145d60e11b815273__$68a4a9eb8a559a2bbe8803518e4b9e68aa$__9063c7fe28ba9061085b9060009030907f0000000000000000000000000000000000000000000000000000000000000000907f0000000000000000000000000000000000000000000000000000000000000000908a90600401613646565b61161061238b565b604051630dcef2ed60e01b815273__$ef9b1583aa8b70c784530b3e99a5d47ca0$__90630dcef2ed9061077c9060009030907f0000000000000000000000000000000000000000000000000000000000000000908890600401613d09565b61167661238b565b604051630d07304f60e31b815273__$ef9b1583aa8b70c784530b3e99a5d47ca0$__9063683982789061077c9060009030907f0000000000000000000000000000000000000000000000000000000000000000907f000000000000000000000000000000000000000000000000000000000000000090899060040161386a565b60006117006123a2565b604051631954f75160e11b815273__$68a4a9eb8a559a2bbe8803518e4b9e68aa$__906332a9eea29061085b9060009030907f0000000000000000000000000000000000000000000000000000000000000000907f0000000000000000000000000000000000000000000000000000000000000000908a906004016137b7565b7f000000000000000000000000000000000000000000000000000000000000000081565b60006117ae6123a2565b6040516359a29a5960e01b815273__$68a4a9eb8a559a2bbe8803518e4b9e68aa$__906359a29a599061085b9060009030907f0000000000000000000000000000000000000000000000000000000000000000907f0000000000000000000000000000000000000000000000000000000000000000908a906004016136b8565b6000806118396123a2565b6040516315d2b52760e01b815273__$c2b2c31495e80ffc48617d6c90e5408064$__906315d2b527906109409060009030907f0000000000000000000000000000000000000000000000000000000000000000907f0000000000000000000000000000000000000000000000000000000000000000908b90600401613684565b6118c161238b565b60405163fb3cc8ed60e01b815273__$ef9b1583aa8b70c784530b3e99a5d47ca0$__9063fb3cc8ed9061077c9060009030907f0000000000000000000000000000000000000000000000000000000000000000907f000000000000000000000000000000000000000000000000000000000000000090899060040161389e565b61194961238b565b60405163f297754960e01b815273__$392a4b0b1a564fbe4578aaac5e4ee9cd89$__9063f29775499061077c906000907f0000000000000000000000000000000000000000000000000000000000000000907f000000000000000000000000000000000000000000000000000000000000000090889060040161317f565b6040516302c6f05960e51b8152600090819073__$2d52d68b63af965ebe1a75e8b5f1279f0a$__906358de0b2090610ab09084907f0000000000000000000000000000000000000000000000000000000000000000907f0000000000000000000000000000000000000000000000000000000000000000908990600401613278565b611a5161238b565b6040516380fbc4ad60e01b815273__$c1acf57442c730596407626df2ac29cae6$__906380fbc4ad9061077c906000907f000000000000000000000000000000000000000000000000000000000000000090879060040161339b565b611ab561238b565b604051637793cbd160e11b815273__$c1acf57442c730596407626df2ac29cae6$__9063ef2797a29061077c906000907f0000000000000000000000000000000000000000000000000000000000000000907f00000000000000000000000000000000000000000000000000000000000000009088906004016131fe565b611b3b61238b565b6040516330cd441d60e21b815273__$ef9b1583aa8b70c784530b3e99a5d47ca0$__9063c33510749061077c9060009030907f0000000000000000000000000000000000000000000000000000000000000000907f000000000000000000000000000000000000000000000000000000000000000090899060040161386a565b6000611bc56123a2565b60405163f777ff6760e01b815273__$68a4a9eb8a559a2bbe8803518e4b9e68aa$__9063f777ff679061085b9060009030907f0000000000000000000000000000000000000000000000000000000000000000907f0000000000000000000000000000000000000000000000000000000000000000908a90600401613684565b6000808080611c56858701876126b5565b935093509350935060007f00000000000000000000000000000000000000000000000000000000000000006001600160a01b031663e6a4390586866040518363ffffffff1660e01b8152600401611cae929190613151565b60206040518083038186803b158015611cc657600080fd5b505afa158015611cda573d6000803e3d6000fd5b505050506040513d601f19601f82011682018060405250810190611cfe9190612750565b90506001600160a01b038116611d265760405162461bcd60e51b8152600401610d5c90613e2b565b336001600160a01b03821614611d4e5760405162461bcd60e51b8152600401610d5c90613e51565b6001600160a01b038316301415611e00577f00000000000000000000000000000000000000000000000000000000000000006001600160a01b031663d0e30db08a6001600160701b03166040518263ffffffff1660e01b81526004016000604051808303818588803b158015611dc357600080fd5b505af1158015611dd7573d6000803e3d6000fd5b50611dfb935050506001600160a01b0387169050826001600160701b038c1661219d565b611e1e565b611e1e6001600160a01b03861684836001600160701b038d1661228f565b6001600160a01b038216301415611ecb577f00000000000000000000000000000000000000000000000000000000000000006001600160a01b031663d0e30db0896001600160701b03166040518263ffffffff1660e01b81526004016000604051808303818588803b158015611e9357600080fd5b505af1158015611ea7573d6000803e3d6000fd5b506114c8935050506001600160a01b0386169050826001600160701b038b1661219d565b6114eb6001600160a01b03851683836001600160701b038c1661228f565b600080611ef46123a2565b60405163a90c310b60e01b815273__$c2b2c31495e80ffc48617d6c90e5408064$__9063a90c310b906109409060009030907f0000000000000000000000000000000000000000000000000000000000000000907f0000000000000000000000000000000000000000000000000000000000000000908b906004016134c2565b611f7c61238b565b604051635a659b9960e11b815273__$c1acf57442c730596407626df2ac29cae6$__9063b4cb37329061077c906000907f0000000000000000000000000000000000000000000000000000000000000000907f00000000000000000000000000000000000000000000000000000000000000009088906004016131fe565b6000806120056123a2565b60405163b1d7966960e01b815273__$c2b2c31495e80ffc48617d6c90e5408064$__9063b1d79669906109409060009030907f0000000000000000000000000000000000000000000000000000000000000000908a90600401613b7f565b604051630dad2bbb60e21b8152600090819073__$2d52d68b63af965ebe1a75e8b5f1279f0a$__906336b4aeec90610ab09084907f0000000000000000000000000000000000000000000000000000000000000000908890600401613423565b6120cb6123c2565b506001600160a01b038084166000908152602081815260408083208685168452825280832085845282529182902082516080810184528154851681526001820154851692810192909252600281015484169282019290925260039091015490911660608201525b9392505050565b61214161238b565b604051634a0f623d60e01b815273__$392a4b0b1a564fbe4578aaac5e4ee9cd89$__90634a0f623d9061077c906000907f000000000000000000000000000000000000000000000000000000000000000090879060040161330e565b60405160009081906001600160a01b0386169063a9059cbb60e01b906121c99087908790602401613138565b60408051601f198184030181529181526020820180516001600160e01b03166001600160e01b031990941693909317909252905161220791906130db565b6000604051808303816000865af19150503d8060008114612244576040519150601f19603f3d011682016040523d82523d6000602084013e612249565b606091505b5091509150818015612273575080511580612273575080806020019051810190612273919061264b565b610a275760405162461bcd60e51b8152600401610d5c90613e79565b60405160009081906001600160a01b038716906323b872dd60e01b906122bd90889088908890602401613114565b60408051601f198184030181529181526020820180516001600160e01b03166001600160e01b03199094169390931790925290516122fb91906130db565b6000604051808303816000865af19150503d8060008114612338576040519150601f19603f3d011682016040523d82523d6000602084013e61233d565b606091505b5091509150818015612367575080511580612367575080806020019051810190612367919061264b565b6123835760405162461bcd60e51b8152600401610d5c90613e79565b505050505050565b604080518082019091526000808252602082015290565b604080516060810182526000808252602082018190529181019190915290565b60408051608081018252600080825260208201819052918101829052606081019190915290565b80356123f481613fb6565b919050565b600082601f830112612409578081fd5b8135602061241e61241983613f7c565b613f4b565b828152818101908583018385028701840188101561243a578586fd5b855b8581101561246157813561244f81613fce565b8452928401929084019060010161243c565b5090979650505050505050565b600082601f83011261247e578081fd5b8135602061248e61241983613f7c565b82815281810190858301838502870184018810156124aa578586fd5b855b85811015612461578135845292840192908401906001016124ac565b60008083601f8401126124d9578182fd5b50813567ffffffffffffffff8111156124f0578182fd5b60208301915083602082850101111561250857600080fd5b9250929050565b60006101008284031215612521578081fd5b50919050565b60006101408284031215612521578081fd5b600060e08284031215612521578081fd5b60006101208284031215612521578081fd5b60006040828403121561256d578081fd5b6125776040613f4b565b9050815161258481613fe3565b8152602082015161259481613fe3565b602082015292915050565b600060c08284031215612521578081fd5b6000606082840312156125c1578081fd5b6125cb6060613f4b565b905081516125d881613fce565b815260208201516125e881613fce565b6020820152604082015163ffffffff8116811461260457600080fd5b604082015292915050565b600060a08284031215612521578081fd5b80356123f481613fce565b80356123f481613fe3565b803564ffffffffff811681146123f457600080fd5b60006020828403121561265c578081fd5b81518015158114612132578182fd5b60008060006060848603121561267f578182fd5b833561268a81613fb6565b9250602084013561269a81613fb6565b915060408401356126aa81613fb6565b809150509250925092565b600080600080608085870312156126ca578182fd5b84356126d581613fb6565b935060208501356126e581613fb6565b925060408501356126f581613fb6565b9150606085013561270581613fb6565b939692955090935050565b600080600060608486031215612724578081fd5b833561272f81613fb6565b9250602084013561273f81613fb6565b929592945050506040919091013590565b600060208284031215612761578081fd5b815161213281613fb6565b600080600080600060808688031215612783578283fd5b853561278e81613fb6565b94506020860135935060408601356127a581613fe3565b9250606086013567ffffffffffffffff8111156127c0578182fd5b6127cc888289016124c8565b969995985093965092949392505050565b600061010082840312156127ef578081fd5b612132838361250f565b6000610140828403121561280b578081fd5b6121328383612527565b600060e08284031215612826578081fd5b6121328383612539565b60006101208284031215612842578081fd5b612132838361254a565b60006040828403121561285d578081fd5b612132838361255c565b600060c08284031215612878578081fd5b612132838361259f565b600060808284031215612893578081fd5b61289d6080613f4b565b82356128a881613fb6565b815260208301356128b881613fb6565b6020820152604083810135908201526060928301359281019290925250919050565b600060a082840312156128eb578081fd5b612132838361260f565b600060208284031215612906578081fd5b813567ffffffffffffffff8082111561291d578283fd5b9083019060c08286031215612930578283fd5b61293a60c0613f4b565b612943836123e9565b81526020830135602082015261295b604084016123e9565b6040820152606083013582811115612971578485fd5b61297d8782860161246e565b606083015250608083013582811115612994578485fd5b6129a0878286016123f9565b60808301525060a083013560a082015280935050505092915050565b6000602082840312156129cd578081fd5b813567ffffffffffffffff808211156129e4578283fd5b9083019060e082860312156129f7578283fd5b612a0160e0613f4b565b612a0a836123e9565b8152612a18602084016123e9565b602082015260408301356040820152612a33606084016123e9565b6060820152608083013582811115612a49578485fd5b612a558782860161246e565b60808301525060a083013582811115612a6c578485fd5b612a78878286016123f9565b60a08301525060c083013560c082015280935050505092915050565b600080600060408486031215612aa8578081fd5b8335612ab381613fce565b9250602084013567ffffffffffffffff811115612ace578182fd5b612ada868287016124c8565b9497909650939450505050565b60008060008060608587031215612afc578182fd5b8435612b0781613fce565b93506020850135612b1781613fce565b9250604085013567ffffffffffffffff811115612b32578283fd5b612b3e878288016124c8565b95989497509550505050565b60008060408385031215612b5c578182fd5b8251612b6781613fe3565b6020840151909250612b7881613fe3565b809150509250929050565b60008060808385031215612b95578182fd5b82519150612ba684602085016125b0565b90509250929050565b600080600060a08486031215612bc3578081fd5b8351925060208401519150612bdb85604086016125b0565b90509250925092565b6001600160a01b03169052565b6000815180845260208085019450808401835b83811015612c295781516001600160701b031687529582019590820190600101612c04565b509495945050505050565b6000815180845260208085019450808401835b83811015612c2957815187529582019590820190600101612c47565b8035612c6e81613fb6565b6001600160a01b03908116835260208281013590840152604082013590612c9482613fb6565b9081166040840152606082013590612cab82613fb6565b1660608301526080810135612cbf81613fce565b6001600160701b03166080830152612cd960a08201612620565b612ce660a08401826130b6565b50612cf360c08201612620565b612d0060c08401826130b6565b5060e090810135910152565b8035612d1781613fb6565b6001600160a01b03908116835260208281013590840152604082013590612d3d82613fb6565b9081166040840152606082013590612d5482613fb6565b1660608301526080810135612d6881613fce565b6001600160701b03908116608084015260a082013590612d8782613fce565b1660a083015260c090810135910152565b8035612da381613fb6565b6001600160a01b031682526020810135612dbc81613fb6565b612dc96020840182612be4565b5060408101356040830152612de0606082016123e9565b612ded6060840182612be4565b50612dfa608082016123e9565b612e076080840182612be4565b50612e1460a08201612620565b612e2160a08401826130b6565b50612e2e60c08201612620565b612e3b60c08401826130b6565b50612e4860e08201612620565b612e5560e08401826130b6565b5061010090810135910152565b8035612e6d81613fe3565b6001600160801b039081168352602082013590612e8982613fe3565b808216602085015250505050565b80516001600160801b03908116835260209182015116910152565b6001600160701b038082511683528060208301511660208401525063ffffffff60408201511660408301525050565b8035612eec81613fb6565b6001600160a01b03908116835260208281013590840152604082013590612f1282613fb6565b9081166040840152606082013590612f2982613fb6565b1660608301526080810135612f3d81613fe3565b6001600160801b03908116608084015260a082013590612d8782613fe3565b8035612f6781613fb6565b6001600160a01b03908116835260208281013590840152604082013590612f8d82613fb6565b9081166040840152606082013590612fa482613fb6565b1660608301526080810135612fb881613fce565b6001600160701b03166080830152612fd260a0820161262b565b612fdf60a08401826130c3565b50612fec60c0820161262b565b612d0060c08401826130c3565b803561300481613fb6565b6001600160a01b03168252602081013561301d81613fb6565b61302a6020840182612be4565b5060408101356040830152613041606082016123e9565b61304e6060840182612be4565b5061305b608082016123e9565b6130686080840182612be4565b5061307560a08201612620565b61308260a08401826130b6565b5061308f60c0820161262b565b61309c60c08401826130c3565b506130a960e0820161262b565b612e5560e08401826130c3565b6001600160701b03169052565b6001600160801b03169052565b64ffffffffff169052565b60008251815b818110156130fb57602081860181015185830152016130e1565b818111156131095782828501525b509190910192915050565b6001600160a01b039384168152919092166020820152604081019190915260600190565b6001600160a01b03929092168252602082015260400190565b6001600160a01b0392831681529116602082015260400190565b6001600160a01b0391909116815260200190565b8481526001600160a01b038481166020830152838116604083015261012082019083356131ab81613fb6565b811660608401526020840135608084015260408401356131ca81613fb6565b811660a084015260608401356131df81613fb6565b1660c08301526131f560e0830160808501612e62565b95945050505050565b8481526001600160a01b0384811660208301528381166040830152610100820190833561322a81613fb6565b8116606084015260208401356080840152604084013561324981613fb6565b811660a0840152606084013561325e81613fb6565b1660c08301526080929092013560e0909101529392505050565b600085825260018060a01b038086166020840152808516604084015260806060840152808451166080840152602084015160a08401528060408501511660c084015250606083015160c060e08401526132d5610140840182612c34565b90506080840151607f19848303016101008501526132f38282612bf1565b91505060a08401516101208401528091505095945050505050565b8381526001600160a01b038381166020830152610120820190833561333281613fb6565b81166040840152602084013561334781613fb6565b81811660608501525060408401356080840152606084013561336881613fb6565b811660a0840152608084013561337d81613fb6565b1660c083015261339360e0830160a08501612e62565b949350505050565b8381526001600160a01b03838116602083015261010082019083356133bf81613fb6565b8116604084015260208401356133d481613fb6565b8181166060850152506040840135608084015260608401356133f581613fb6565b811660a0840152608084013561340a81613fb6565b1660c083015260a0929092013560e09091015292915050565b600084825260018060a01b0380851660208401526060604084015280845116606084015280602085015116608084015250604083015160a0830152606083015161347060c0840182612be4565b50608083015160e08084015261348a610140840182612c34565b905060a0840151605f19848303016101008501526134a88282612bf1565b91505060c084015161012084015280915050949350505050565b8581526001600160a01b038581166020830152848116604083015283166060820152610180810182356134f481613fb6565b6135016080840182612be4565b50602083013560a0830152613518604084016123e9565b61352560c0840182612be4565b50613532606084016123e9565b61353f60e0840182612be4565b50608083013561010083015261355760a08401612620565b6135656101208401826130b6565b5061357260c08401612620565b6135806101408401826130b6565b5060e08301356101608301529695505050505050565b8581526001600160a01b038581166020830152848116604083015283166060820152610180810182356135c881613fb6565b6135d56080840182612be4565b50602083013560a08301526135ec604084016123e9565b6135f960c0840182612be4565b50613606606084016123e9565b61361360e0840182612be4565b5061362060808401612620565b61362e6101008401826130b6565b5060a083013561012083015261357260c08401612620565b8581526001600160a01b038581166020830152848116604083015283166060820152610180810161367a6080830184612c63565b9695505050505050565b8581526001600160a01b038581166020830152848116604083015283166060820152610160810161367a6080830184612d0c565b8581526001600160a01b0385811660208301528481166040830152831660608201526101a081016136f4608083016136ef856123e9565b612be4565b602083013560a083015261370a604084016123e9565b61371760c0840182612be4565b50613724606084016123e9565b61373160e0840182612be4565b5061373e60808401612620565b61010061374d818501836130b6565b61375960a08601612636565b91506137696101208501836130d0565b61377560c08601612620565b91506137856101408501836130b6565b61379160e08601612620565b91506137a16101608501836130b6565b8085013561018085015250509695505050505050565b8581526001600160a01b038581166020830152848116604083015283166060820152610180810182356137e981613fb6565b6137f66080840182612be4565b50602083013560a083015261380d604084016123e9565b61381a60c0840182612be4565b50613827606084016123e9565b61383460e0840182612be4565b5061384160808401612620565b61384f6101008401826130b6565b5061385c60a08401612636565b6135656101208401826130d0565b8581526001600160a01b038581166020830152848116604083015283166060820152610160810161367a6080830184612ee1565b8581526001600160a01b038581166020830152848116604083015283166060820152610180810161367a6080830184612f5c565b8581526001600160a01b0385811660208301528481166040830152831660608201526101808101823561390481613fb6565b6139116080840182612be4565b50602083013560a0830152613928604084016123e9565b61393560c0840182612be4565b50613942606084016123e9565b61394f60e0840182612be4565b5061395c60808401612636565b61396a6101008401826130d0565b5061397760a0840161262b565b6139856101208401826130c3565b5061399260c0840161262b565b6135806101408401826130c3565b8581526001600160a01b0385811660208301528481166040830152831660608201526101a081016139d7608083016136ef856123e9565b602083013560a08301526139ed604084016123e9565b6139fa60c0840182612be4565b50613a07606084016123e9565b613a1460e0840182612be4565b50613a2160808401612620565b610100613a30818501836130b6565b613a3c60a08601612636565b9150613a4c6101208501836130d0565b613a5860c0860161262b565b9150613a686101408501836130c3565b613a7460e0860161262b565b91506137a16101608501836130c3565b8481526001600160a01b038481166020830152831660408201526101a08101613ab3606083016136ef856123e9565b613abf602084016123e9565b613acc6080840182612be4565b50604083013560a0830152613ae3606084016123e9565b613af060c0840182612be4565b50613afd608084016123e9565b613b0a60e0840182612be4565b50613b1760a08401612620565b610100613b26818501836130b6565b610120915060c085013582850152613b4060e08601612620565b613b4e6101408601826130b6565b50613b5a818601612620565b9050613b6a6101608501826130b6565b50808401356101808401525095945050505050565b8481526001600160a01b0384811660208301528316604082015261018081016131f56060830184612d98565b8481526001600160a01b038481166020830152831660408201526101a08101613bda606083016136ef856123e9565b613be6602084016123e9565b613bf36080840182612be4565b50604083013560a0830152613c0a606084016123e9565b613c1760c0840182612be4565b50613c24608084016123e9565b613c3160e0840182612be4565b50613c3e60a08401612620565b610100613c4d818501836130b6565b613c5960c08601612636565b9150610120613c6a818601846130d0565b613c7660e08701612620565b9250613c866101408601846130b6565b613c91828701612620565b9250613ca16101608601846130b6565b8086013561018086015250505095945050505050565b9384526001600160a01b03928316602080860191909152918316604080860191909152815184166060808701919091529282015190931660808501529182015160a0840152015160c082015260e00190565b8481526001600160a01b0384811660208301528316604082015261018081016131f56060830184612ff9565b8481526001600160a01b038481166020830152831660408201526101a08101613d64606083016136ef856123e9565b613d70602084016123e9565b613d7d6080840182612be4565b50604083013560a0830152613d94606084016123e9565b613da160c0840182612be4565b50613dae608084016123e9565b613dbb60e0840182612be4565b50613dc860a08401612620565b610100613dd7818501836130b6565b613de360c08601612636565b9150610120613df4818601846130d0565b613e0060e0870161262b565b9250613e106101408601846130c3565b613e1b82870161262b565b9250613ca16101608601846130c3565b6020808252600c908201526b24b73b30b634b2103830b4b960a11b604082015260600190565b6020808252600e908201526d24b73b30b634b21039b2b73232b960911b604082015260600190565b6020808252600290820152612a2360f11b604082015260600190565b6020808252600a9082015269125b9d985b1a590818d960b21b604082015260600190565b604081016107cb8284612e97565b81516001600160a01b039081168252602080840151821690830152604080840151821690830152606092830151169181019190915260800190565b6001600160801b0392831681529116602082015260400190565b828152608081016121326020830184612eb2565b8381526020810183905260a081016133936040830184612eb2565b604051601f8201601f1916810167ffffffffffffffff81118282101715613f7457613f74613fa0565b604052919050565b600067ffffffffffffffff821115613f9657613f96613fa0565b5060209081020190565b634e487b7160e01b600052604160045260246000fd5b6001600160a01b0381168114613fcb57600080fd5b50565b6001600160701b0381168114613fcb57600080fd5b6001600160801b0381168114613fcb57600080fdfea2646970667358221220e291acf552697f202a3f26636ef2fe761da0c8a014bd24e890d3baabff2d5a5164736f6c63430008010033",
  "linkReferences": {
    "contracts/libraries/Borrow.sol": {
      "Borrow": [
        {
          "length": 20,
          "start": 2688
        },
        {
          "length": 20,
          "start": 3502
        },
        {
          "length": 20,
          "start": 4373
        },
        {
          "length": 20,
          "start": 4917
        },
        {
          "length": 20,
          "start": 5021
        },
        {
          "length": 20,
          "start": 6189
        },
        {
          "length": 20,
          "start": 6565
        },
        {
          "length": 20,
          "start": 6739
        },
        {
          "length": 20,
          "start": 7786
        }
      ]
    },
    "contracts/libraries/Burn.sol": {
      "Burn": [
        {
          "length": 20,
          "start": 7414
        },
        {
          "length": 20,
          "start": 7514
        },
        {
          "length": 20,
          "start": 8737
        }
      ]
    },
    "contracts/libraries/DeployNative.sol": {
      "DeployNative": [
        {
          "length": 20,
          "start": 3138
        }
      ]
    },
    "contracts/libraries/Lend.sol": {
      "Lend": [
        {
          "length": 20,
          "start": 2499
        },
        {
          "length": 20,
          "start": 4509
        },
        {
          "length": 20,
          "start": 4779
        },
        {
          "length": 20,
          "start": 5123
        },
        {
          "length": 20,
          "start": 6051
        },
        {
          "length": 20,
          "start": 6325
        },
        {
          "length": 20,
          "start": 6427
        },
        {
          "length": 20,
          "start": 7014
        },
        {
          "length": 20,
          "start": 7648
        }
      ]
    },
    "contracts/libraries/Mint.sol": {
      "Mint": [
        {
          "length": 20,
          "start": 2917
        },
        {
          "length": 20,
          "start": 3606
        },
        {
          "length": 20,
          "start": 3745
        },
        {
          "length": 20,
          "start": 6878
        },
        {
          "length": 20,
          "start": 8601
        },
        {
          "length": 20,
          "start": 8874
        }
      ]
    },
    "contracts/libraries/Pay.sol": {
      "Pay": [
        {
          "length": 20,
          "start": 3288
        },
        {
          "length": 20,
          "start": 7281
        },
        {
          "length": 20,
          "start": 8973
        }
      ]
    },
    "contracts/libraries/Withdraw.sol": {
      "Withdraw": [
        {
          "length": 20,
          "start": 4645
        },
        {
          "length": 20,
          "start": 7150
        },
        {
          "length": 20,
          "start": 9190
        }
      ]
    }
  },
  "deployedLinkReferences": {
    "contracts/libraries/Borrow.sol": {
      "Borrow": [
        {
          "length": 20,
          "start": 2026
        },
        {
          "length": 20,
          "start": 2840
        },
        {
          "length": 20,
          "start": 3711
        },
        {
          "length": 20,
          "start": 4255
        },
        {
          "length": 20,
          "start": 4359
        },
        {
          "length": 20,
          "start": 5527
        },
        {
          "length": 20,
          "start": 5903
        },
        {
          "length": 20,
          "start": 6077
        },
        {
          "length": 20,
          "start": 7124
        }
      ]
    },
    "contracts/libraries/Burn.sol": {
      "Burn": [
        {
          "length": 20,
          "start": 6752
        },
        {
          "length": 20,
          "start": 6852
        },
        {
          "length": 20,
          "start": 8075
        }
      ]
    },
    "contracts/libraries/DeployNative.sol": {
      "DeployNative": [
        {
          "length": 20,
          "start": 2476
        }
      ]
    },
    "contracts/libraries/Lend.sol": {
      "Lend": [
        {
          "length": 20,
          "start": 1837
        },
        {
          "length": 20,
          "start": 3847
        },
        {
          "length": 20,
          "start": 4117
        },
        {
          "length": 20,
          "start": 4461
        },
        {
          "length": 20,
          "start": 5389
        },
        {
          "length": 20,
          "start": 5663
        },
        {
          "length": 20,
          "start": 5765
        },
        {
          "length": 20,
          "start": 6352
        },
        {
          "length": 20,
          "start": 6986
        }
      ]
    },
    "contracts/libraries/Mint.sol": {
      "Mint": [
        {
          "length": 20,
          "start": 2255
        },
        {
          "length": 20,
          "start": 2944
        },
        {
          "length": 20,
          "start": 3083
        },
        {
          "length": 20,
          "start": 6216
        },
        {
          "length": 20,
          "start": 7939
        },
        {
          "length": 20,
          "start": 8212
        }
      ]
    },
    "contracts/libraries/Pay.sol": {
      "Pay": [
        {
          "length": 20,
          "start": 2626
        },
        {
          "length": 20,
          "start": 6619
        },
        {
          "length": 20,
          "start": 8311
        }
      ]
    },
    "contracts/libraries/Withdraw.sol": {
      "Withdraw": [
        {
          "length": 20,
          "start": 3983
        },
        {
          "length": 20,
          "start": 6488
        },
        {
          "length": 20,
          "start": 8528
        }
      ]
    }
  }
}